:100000000C946A000C9492000C9492000C94920050
:100010000C9492000C9492000C9492000C94E702C1
:100020000C9492000C9492000C9492000C94EE03A9
:100030000C9492000C9492000C9492000C949200F8
:100040000C94A4030C9492000C945A020C94340265
:100050000C9492000C9492000C9492000C949200D8
:100060000C9492000C9492006364696E6F707375C7
:1000700078585B0000000000240027002A000000E0
:1000800000002300260029000000000800020100F3
:100090000003040700000000000000000201020449
:1000A00008102040800102040810200102040810FA
:1000B0002000000000250028002B00040404040494
:1000C0000404040202020202020303030303030006
:1000D000400C300C11241FBECFEFD8E0DEBFCDBFE7
:1000E00013E0A0E0B1E0E0E3F3E302C005900D927D
:1000F000AE3AB107D9F725E0AEEAB3E001C01D92F0
:10010000A730B207E1F710E0C9E6D0E004C02197BC
:10011000FE010E943F12C836D107C9F70E94A60708
:100120000C948B190C940000CF92DF92EF92FF9207
:100130000F931F936C01EE24FF24FC2D072F182F23
:10014000292F3327E02F562F4091E704442361F0F5
:10015000C49E60011124FD2D049F80011124E12F14
:10016000649F90011124532FA091ED04B091EA04F3
:100170002091E8043091E904AB1789F0C92EDD2401
:10018000EE24FF24C9018A0F911DDC01442329F0CC
:10019000C49EB0011124672F01C06C2D6C93809117
:1001A000EA04D901A80FB11DFC938091EB04D90199
:1001B000A80FB11DEC938091EC04F901E80FF11D3B
:1001C00050831F910F91FF90EF90DF90CF90089593
:1001D000CF92DF92EF92FF920F931F93CF93DF9313
:1001E0006C017A018B01C0E0D0E0CE15DF0589F00B
:1001F000D8016D918D01D601ED91FC910190F081B6
:10020000E02DC6010995892B11F47E0102C02196CB
:10021000ECCFC701DF91CF911F910F91FF90EF902D
:10022000DF90CF900895089580E090E00895FC015C
:10023000538D448D252F30E0842F90E0821B930B4B
:10024000541710F0CF96089501970895FC01918DF1
:10025000828D981761F0828DDF01A80FB11D5D9628
:100260008C91928D9F5F9F73928F90E008958FEF96
:100270009FEF0895FC01918D828D981731F0828D4A
:10028000E80FF11D858D90E008958FEF9FEF0895A1
:10029000FC01918D228D892F90E0805C9F4F821B05
:1002A00091098F739927089588E194E00E9448018D
:1002B00021E0892B09F420E0822F0895FC01848D30
:1002C000DF01A80FB11DA35ABF4F2C91848D90E080
:1002D00001968F739927848FA689B7892C93A0895B
:1002E000B1898C9180648C93938D848D981306C012
:1002F0000288F389E02D80818F7D80830895EF92BD
:10030000FF920F931F93CF93DF93EC0181E0888FCF
:100310009B8D8C8D981305C0E889F989808185FDB6
:1003200024C0F62E0B8D10E00F5F1F4F0F731127A7
:10033000E02E8C8DE8120CC00FB607FCFACFE889CE
:10034000F989808185FFF5CFCE010E945E01F1CF52
:100350008B8DFE01E80FF11DE35AFF4FF0820B8FEA
:10036000EA89FB898081806207C0EE89FF8960830A
:10037000E889F98980818064808381E090E0DF9161
:10038000CF911F910F91FF90EF900895CF93DF933E
:10039000EC01888D8823C9F0EA89FB89808185FD7D
:1003A00005C0A889B9898C9186FD0FC00FB607FCDE
:1003B000F5CF808185FFF2CFA889B9898C9185FF1F
:1003C000EDCFCE010E945E01E7CFDF91CF9108957E
:1003D00080E090E0892B29F00E94540181110C9457
:1003E00000000895833081F028F4813099F0823044
:1003F000A1F008958730A9F08830B9F08430D1F4A5
:10040000809180008F7D03C0809180008F778093E2
:100410008000089584B58F7702C084B58F7D84BD38
:1004200008958091B0008F7703C08091B0008F7DD8
:100430008093B00008958E3008F08E5087708064ED
:1004400080937C0080917A00806480937A00809110
:100450007A0086FDFCCF809178002091790090E0B1
:10046000922B08950E9472131F920F920FB60F9253
:1004700011242F933F934F935F936F937F938F93A9
:100480009F93AF93BF93EF93FF9388E194E00E9413
:100490005E01FF91EF91BF91AF919F918F917F91FD
:1004A0006F915F914F913F912F910F900FBE0F90E1
:1004B0001F9018951F920F920FB60F9211242F9331
:1004C0008F939F93EF93FF93E0912804F091290479
:1004D0008081E0912E04F0912F0482FD12C0908162
:1004E000809131048F5F8F7320913204821751F015
:1004F000E0913104F0E0E85EFB4F958F809331048A
:1005000001C08081FF91EF919F918F912F910F906A
:100510000FBE0F901F9018951F93CF93DF93282F36
:1005200030E0F901E857FF4F8491F901E356FF4F9E
:10053000D491F901E554FF4FC491CC23C9F0162F93
:1005400081110E94F201EC2FF0E0EE0FFF1FEF543B
:10055000FF4FA591B4918FB7F894111105C09C91EC
:10056000ED2FE095E92302C0EC91ED2BEC938FBFCA
:10057000DF91CF911F91089590910B03981324C0A0
:10058000ECE9F0E0E4919FEF90930B03E130B9F0D8
:1005900098F0E230C9F4909170009D7F90937000C4
:1005A00091E09093B0009091B100987F9460909307
:1005B000B1001092B30008C010926E0005C0909177
:1005C0006F009D7F90936F0060E00C948C021F92EF
:1005D0000F920FB60F9211242F933F934F935F9377
:1005E0006F937F938F939F93AF93BF93EF93FF93FB
:1005F0008091140490911504A0911604B0911704F1
:10060000892B8A2B8B2B51F180911104E0911204DC
:10061000F091130490818927808380911404909134
:100620001504A0911604B0911704181619061A069D
:100630001B06C4F48091140490911504A091160433
:10064000B09117040197A109B10980931404909304
:100650001504A0931604B093170404C080910B03F3
:100660000E94BC02FF91EF91BF91AF919F918F913A
:100670007F916F915F914F913F912F910F900FBE9E
:100680000F901F901895CF93DF9390E0FC01E356F5
:10069000FF4F2491FC01E554FF4F8491882361F1C1
:1006A00090E0880F991FFC01EC58FF4FC591D49141
:1006B000FC01EF54FF4FA591B491611109C09FB7A0
:1006C000F8948881209582238883EC912E230BC097
:1006D000623061F49FB7F8943881822F809583232C
:1006E0008883EC912E2B2C939FBF06C08FB7F89474
:1006F000E8812E2B28838FBFDF91CF9108953FB7DC
:10070000F8948091B0039091B103A091B203B0919D
:10071000B30326B5A89B05C02F3F19F00196A11D74
:10072000B11D3FBFBA2FA92F982F8827820F911D87
:10073000A11DB11DBC01CD0143E0660F771F881FCD
:10074000991F4A95D1F708951F920F920FB60F92F5
:1007500011242F933F938F939F93AF93BF938091D7
:10076000B6039091B703A091B803B091B90330914B
:10077000AF0326E0230F2D3720F40296A11DB11DF3
:1007800005C029E8230F0396A11DB11D2093AF03D7
:100790008093B6039093B703A093B803B093B903C3
:1007A0008091B0039091B103A091B203B091B303D3
:1007B0000196A11DB11D8093B0039093B103A09346
:1007C000B203B093B303BF91AF919F918F913F91CB
:1007D0002F910F900FBE0F901F9018951F920F92A0
:1007E0000FB60F9211242F933F934F935F936F9304
:1007F0007F938F939F93AF93BF93EF93FF938091DA
:10080000AE0387FF05C010928500109284001BC0C4
:100810002091AE03022E000C330B8091D90490E09E
:100820002817390784F48091AE03082E000C990B29
:10083000FC01EE0FFF1F8E0F9F1FFC01EB54FB4FBF
:10084000808186FD15C08091AE038F5F8093AE03DB
:100850002091AE03022E000C330B8091D90490E05E
:1008600028173907C4F48091AE038C3064F113C0AB
:100870008091AE03082E000C990BFC01EE0FFF1FB8
:100880008E0F9F1FFC01EB54FB4F808160E08F7344
:100890000E948C02D8CF80918400909185000496AC
:1008A00080329E4418F480E29EE405C0809184006A
:1008B00090918500049690938900809388008FEF33
:1008C0008093AE033BC020918400309185008091DD
:1008D000AE03082E000C990BFC01EE0FFF1F8E0FCC
:1008E0009F1FFC01EB54FB4F81819281820F931F6C
:1008F00090938900809388008091AE03082E000CAD
:10090000990BFC01EE0FFF1F8E0F9F1FFC01EB5494
:10091000FB4F808186FF12C08091AE03082E000C31
:10092000990BFC01EE0FFF1F8E0F9F1FFC01EB5474
:10093000FB4F808161E08F730E948C02FF91EF91E9
:10094000BF91AF919F918F917F916F915F914F91E7
:100950003F912F910F900FBE0F901F9018950F93FE
:100960001F93CF93DF93CDB7DEB729970FB6F894D7
:10097000DEBF0FBECDBF0E947F030091EE04109139
:10098000EF042091F0043091F104DC01CB01801BD5
:10099000910BA20BB30B8C329140A105B10558F31A
:1009A000F8948091E4049091E5049A838983A0915E
:1009B000E804B091E904FD0131968C91898780911A
:1009C000E004A091F204B091F304882309F417C164
:1009D0001B82AB32B10509F058C09BB18091F40481
:1009E000982B98879BB1809589238F838F818C83E7
:1009F000898587FF02C088858C8358856F814985EA
:100A00003C812B8189819A815BB9262F3BB900C03B
:100A100046FD252F6BB900C05BB9362F2BB900C03E
:100A200045FD352F6BB900C05BB9262F3BB900C01F
:100A300044FD252F6BB900C05BB9362F2BB900C020
:100A400043FD352F6BB900C05BB9262F3BB900C001
:100A500042FD252F6BB900C05BB9362F2BB900C002
:100A600041FD352F6BB900C05BB9262F3BB900C0E3
:100A700040FD252F6BB901975BB9362F2BB94191FA
:100A800047FD352F6BB901F6B6C0A532B10509F0A7
:100A900058C095B18091F404982B988795B18095B2
:100AA00089238F838F818C83898587FF02C0888506
:100AB0008C8358856F8149853C812B8189819A81FE
:100AC00055B9262F35B900C046FD252F65B900C0A0
:100AD00055B9362F25B900C045FD352F65B900C081
:100AE00055B9262F35B900C044FD252F65B900C082
:100AF00055B9362F25B900C043FD352F65B900C063
:100B000055B9262F35B900C042FD252F65B900C063
:100B100055B9362F25B900C041FD352F65B900C044
:100B200055B9262F35B900C040FD252F65B901976D
:100B300055B9362F25B9419147FD352F65B901F6D5
:100B40005AC0989709F08BC098B18091F404982B03
:100B5000988798B1809589238F838F818C8389852D
:100B600087FF02C088858C8358856F8149853C81C9
:100B70002B8189819A8158B9262F38B900C046FD4A
:100B8000252F68B900C058B9362F28B900C045FDD7
:100B9000352F68B900C058B9262F38B900C044FDB8
:100BA000252F68B900C058B9362F28B900C043FDB9
:100BB000352F68B900C058B9262F38B900C042FD9A
:100BC000252F68B900C058B9362F28B900C041FD9B
:100BD000352F68B900C058B9262F38B900C040FD7C
:100BE000252F68B9019758B9362F28B9419147FD8B
:100BF000352F68B901F649873C832B832EC09C9121
:100C00008091F404982B98879C91809589238F83F9
:100C10008F818E8388E08D8358856F8149853D81E2
:100C20002E8189819A815C9347FD252F2C93262F55
:100C30003A9531F0441F6C9300C000C000C0F3CF60
:100C40006C93000038E04191019769F7B093F30489
:100C5000A093F20449873D832E839A8389837894F5
:100C60000E947F036093EE047093EF048093F0047E
:100C70009093F10429960FB6F894DEBF0FBECDBF56
:100C8000DF91CF911F910F910895CF92DF92EF9254
:100C9000FF920F931F93E82FF92F05C00150110900
:100CA0002109310961F1908196239417B9F305C0A8
:100CB000015011092109310911F1908196239413F2
:100CC000F7CFC12CD12CE12CF12C0AC08FEFC81A20
:100CD000D80AE80AF80A0C151D052E053F0579F01B
:100CE00080818623841791F36C2D7D2D8E2D9F2D71
:100CF0001F910F91FF90EF90DF90CF90089560E0EB
:100D000070E080E090E01F910F91FF90EF90DF90F6
:100D1000CF900895CF92DF92EF92FF92CF93DF931F
:100D2000EC01603282E078070CF03DC077FD06C030
:100D3000653B71052CF064EB70E002C060E070E090
:100D4000898128E830E06901C81AD10887FDD39469
:100D5000CC0CDD1CCC0CDD1C0D2C000CEE08FF08AF
:100D60008A8128E532E0281B310987FD3395220F5F
:100D7000331F220F331FC901330FAA0BBB0B9C017A
:100D8000AD012C193D094E095F09DB010E94C20F1C
:100D900024EB30E040E050E00E94980FC20ED31EDA
:100DA000E41EF51EB60188818C3070F5998148E803
:100DB00050E0491B510997FD5395440F551F440FAF
:100DC000551F6417750784F09A8128E532E0291BC6
:100DD000310997FD3395220F331F220F331FAB01CB
:100DE000261737070CF4A9012FB7F89490E042506A
:100DF0005109FC01EE0FFF1F8E0F9F1FFC01EB54EA
:100E0000FB4F528341832FBFDF91CF91FF90EF9033
:100E1000DF90CF9008950F931F93CF93DF93CDB7BB
:100E2000DEB7DA950FB6F894DEBF0FBECDBFFC017A
:100E300001900020E9F73197E81BF90B9F938F93FE
:100E4000FF93EF9380E091E09F938F938E010F5F6C
:100E50001F4F1F930F930E947E13F80101900020F3
:100E6000E9F73197AF01401B510BB80188E194E0DD
:100E70000E94E8000FB6F894DEBF0FBECDBFD39539
:100E80000FB6F894DEBF0FBECDBFDF91CF911F919B
:100E90000F9108951F93CF93DF93EC01162F888154
:100EA0008C3008F04EC061E0812F0E94430388819E
:100EB000E82FF0E09F01220F331FE20FF31FEB54E6
:100EC000FB4F1F739081907C192B108319821A821B
:100ED0006CE00E940B129CE0899FB001112440E05D
:100EE00050E09A01260F371FF901EE0FFF1F2E0F5A
:100EF0003F1FF901EB54FB4F908196FD16C04F5FE9
:100F00005F4F4C30510569F781110FC0109280007E
:100F100082E0809381001092850010928400B19A43
:100F200080916F00826080936F00E881F0E0CF01D4
:100F3000880F991FE80FF91FEB54FB4F80818064E5
:100F400080838881DF91CF911F910895CF93DF93A4
:100F5000CDB7DEB7C258D1090FB6F894DEBF0FBEC9
:100F6000CDBF789484B5826084BD84B5816084BD32
:100F700085B5826085BD85B5816085BD80916E0037
:100F8000816080936E001092810080918100826068
:100F900080938100809181008160809381008091A5
:100FA00080008160809380008091B1008460809394
:100FB000B1008091B00081608093B00080917A0090
:100FC000846080937A0080917A00826080937A00B6
:100FD00080917A008E7F80937A0080917A00806879
:100FE00080937A001092C1001092BB031092BA0352
:100FF0001092ED031092EC0381E090E09093EB03EC
:101000008093EA032FB7F8948091B6039091B703C9
:10101000A091B803B091B9032FBF8093BC03909304
:10102000BD03A093BE03B093BF031092C9031092F7
:10103000C80361E08DE00E94430361E087E00E9405
:10104000430361E08CE00E94430360E08EE00E9475
:1010500043038091E60487FD08C061E00E944303DA
:1010600060E08091E6040E948C0281E08093E104BC
:101070008091E2049091E304892B29F060E070E014
:10108000CB010E9494008091E8049091E904892B9F
:1010900011F00E94AF041092100410920F04E0911E
:1010A0002804F091290482E08083E0912404F091E7
:1010B00025041082E0912604F091270480E18083CA
:1010C00010923004E0912C04F0912D0486E080838E
:1010D000E0912A04F0912B04808180618083E0916B
:1010E0002A04F0912B04808188608083E0912A0497
:1010F000F0912B04808180688083E0912A04F09134
:101100002B0480818F7D80839E012F5B3F4FCF57C3
:10111000DF4F39832883C158D0401E0131E6230EAA
:10112000311C88248394912C88E194E00E9448012A
:10113000181619060CF007C380910F049091100443
:10114000809724F01092100410920F0488E194E02C
:101150000E94260180930E04873429F41092100413
:1011600010920F040EC08A3061F4E0910F04F091E8
:101170001004E251FC4F10821092100410920F04E0
:1011800012C020910F0430911004A9014F5F5F4FEE
:101190005093100440930F04F901E251FC4F8083F7
:1011A0008A3009F0D0C28EEE93E02091EE0327340E
:1011B00009F0C9C22091EF03253409F0C4C220917F
:1011C000F003243509F0BFC2AE014F5F5F4F5A01F3
:1011D0005F934F936E0151E2C50ED11CDF92CF9207
:1011E000CE57DF4FE881C258D040EF93CF57DF4F43
:1011F000F881C158D040FF933F922F922CE633E004
:101200003F932F939F938F930E94A1130FB6F8944F
:10121000DEBF0FBECDBF019699F0C1010E94720FD3
:101220007C01CE018F5B9F4F0E94720F8C01C60123
:101230000E94720F6C01C5010E94720F282F09C015
:101240002FEFCC24CA94DC2C0FEF1FEFEE24EA948E
:10125000FE2C46E0E416F10409F476C154F583E06F
:10126000E816F10409F45AC0CCF4E1E0EE16F104FA
:1012700009F44BC0F2E0EF16F10409F055C28FE01B
:101280000E941B02182F092F84E10E941B029F93CA
:101290008F930F931F9383E993E04DC124E0E216EF
:1012A000F10409F4C2C035E0E316F10409F4C7C043
:1012B0003BC249E0E416F10409F467C17CF487E01D
:1012C000E816F10409F45DC198E0E916F10409F0AB
:1012D0002BC2602F8DE00E948C02AEC0EBE0EE16B8
:1012E000F10409F47EC10CF471C126E3E216F104A5
:1012F00009F01AC285EA93E00E940B0706E313E0A7
:1013000092E1A92E93E0B92ED7C11093ED0300937B
:10131000EC031092EB031092EA038EC00115110545
:1013200081F4E091DD04F0E0CF01880F991FE80F10
:10133000F91FEB54FB4F80818F7B80831092C90390
:1013400030C08091C903811109C064E070E08DED67
:1013500094E00E944A0781E08093C903C801110FFD
:10136000AA0BBB0B9C01AD012C593F4F4F4F5F4F58
:10137000A4EBB0E00E94B70F28EC30E040E050E072
:101380000E94980F57FD07C0B901253B31052CF08D
:1013900064EB70E002C060E070E08DED94E00E94CC
:1013A0008A06C114D10481F4E091DA04F0E0CF019F
:1013B000880F991FE80FF91FEB54FB4F80818F7B3B
:1013C00080831092C80338C08091C803811109C07E
:1013D00065E070E08AED94E00E944A0781E0809326
:1013E000C803C601DD0CAA0BBB0B9C01AD01245642
:1013F000310941095109A4EBB0E00E94B70F28E37D
:101400003FEF4FEF5FEF0E94980F57FD07C0B90104
:10141000253B31052CF064EB70E002C060E070E029
:101420008AED94E00E948A0607C0A601DD0C660BD7
:10143000770BC8010E94140D85EA93E0CFC060E0ED
:101440008CE00E948C0261E08CE00E948C0280E1C2
:1014500090E00197F1F760E08CE00E948C02EBEAEB
:10146000F0E06491E9ECF0E0E491F0E0EE0FFF1FB2
:10147000E258FF4F8591949100E211EA27E030E0B5
:10148000462F0E9445066115710581059105B1F051
:10149000DC01CB010196A11DB11D44E0880F991F0D
:1014A000AA1FBB1F4A95D1F7BC01CD0153E0969509
:1014B0008795779567955A95D1F703C060E070E0FE
:1014C000CB010E9410116093C4037093C5038093F5
:1014D000C6039093C7032DEC3CEC48E652E40E940F
:1014E00068100E94DA1065367105810591054CF48B
:1014F0006093C0037093C1038093C2039093C303AE
:101500000CC084E690E0A0E0B0E08093C00390932C
:10151000C103A093C203B093C3038091C3038F930D
:101520008091C2038F938091C1038F938091C003F8
:101530008F938CE993E09F938F938AEC93E09F9332
:101540008F930E947E1363C08091E2049091E30424
:10155000892B69F0802F90E0A0E0B0E0DC019927B2
:1015600088279C29BC01CD01622B0E9494008091A8
:10157000E8049091E904892B09F45ECF0E94AF043E
:101580005BCF85E10E941B020AC080E10E941B0222
:1015900026E0FC012E9FC0012F9F900D11249F93E8
:1015A0008F9380EA93E09F938F938AEC93E09F93CD
:1015B0008F930E947E138AEC93E00E940B070F909A
:1015C0000F900F900F900F900F90BDC063EA73E0E3
:1015D0008AEC93E00E9477138AEC93E00E940B0759
:1015E000B2C084EF91E09F938F9385E492E09F9344
:1015F0008F9381E992E09F938F9386EA93E09F9384
:101600008F938AEC93E09F938F930E947E138AECD2
:1016100093E00E940B070FB6F894DEBF0FBECDBF5C
:1016200092C00E947F03DC01CB0184199509A609B1
:10163000B709883E9340A105B10580F0F1E0CF1ACB
:10164000D108E108F10828EE420E23E0521E611C89
:10165000711CC114D104E104F10419F7C114D104BF
:10166000E104F104F1F687E00E94BC02E5E9F0E054
:101670008491EAEAF0E0F490E8ECF0E0E490EE2007
:1016800009F450C081110E94F201EE2DF0E0EE0F3E
:10169000FF1FE258FF4FA591B4918C91F82281E091
:1016A00009F440C061E0681B8DE00E948C02F3E009
:1016B0000A351F0709F447C0F801619171918F0144
:1016C00080ED97E00E941712072E000C880B990BF3
:1016D0000E94121120E030E0A9010E94FC0F0E943C
:1016E000DA106B01770FEE08FF08B701A601F501CC
:1016F000819191915F010E94140DC701B6010E9472
:1017000012112AE939E949E95FE30E949E110E941A
:10171000DA106B01770FEE08FF080E947F032B01A0
:101720003C019CCF80E0BECFE7E7F1E001900020D4
:10173000E9F73197AF014757514067E771E088E11A
:1017400094E00E94E8002FB7F8948091B60390913E
:10175000B703A091B803B091B9032FBF18161906AB
:101760001A061B06F4F480E10E941B0226E0AC017D
:10177000249FC001259F900D11249093B503809361
:10178000B4038C349E404CF461E08DE00E948C02E6
:101790009092EB038092EA0304C060E08DE00E9427
:1017A0008C028091EA039091EB03892B09F055C0DC
:1017B0008091EC039091ED03892B69F41092BB03A7
:1017C0001092BA039092EB038092EA0360E08DE0FE
:1017D0000E948C0242C08FB7F894C090B603D0909C
:1017E000B703E090B803F090B9038FBF8091BC03BA
:1017F0009091BD03A091BE03B091BF03B701A601B4
:10180000481B590B6A0B7B0B8091EC039091ED0305
:10181000092E000CAA0BBB0B84179507A607B70768
:10182000E4F48091BA039091BB03892B29F4909240
:10183000BB038092BA0304C01092BB031092BA0398
:101840006091BA038DE00E948C02C092BC03D092DA
:10185000BD03E092BE03F092BF030E94E80164CC96
:101860008091E8049091E904009711F00E94DA1247
:101870008091E60487FD03C060E00C944303089563
:1018800010921B0410921A0488EE93E0A0E0B0E0DE
:1018900080931C0490931D04A0931E04B0931F0416
:1018A0008EE593E0909319048093180485EC90E002
:1018B000909325048093240484EC90E09093270473
:1018C0008093260480EC90E0909329048093280470
:1018D00081EC90E090932B0480932A0482EC90E0BA
:1018E00090932D0480932C0486EC90E090932F0429
:1018F00080932E041092310410923204109233041B
:10190000109234041092E1041092E7041092EE0455
:101910001092EF041092F0041092F10481E0809391
:10192000ED048093EA041092EB0492E09093EC04AF
:101930008093E00483E090E09093E5048093E404D6
:101940000E9445129093E9048093E804009759F0AF
:10195000FC0110821182128281E090E09093E304F6
:101960008093E20408C01092E5041092E4041092FF
:10197000E3041092E2048BE08093E6048091E1049A
:10198000882341F061E08BE00E94430360E08BE03C
:101990000E948C02E6ECF0E0E491F0E0EE0FFF1F15
:1019A000EF54FF4F859194919093F3048093F20448
:1019B000E8EAF0E0E491E093F4048091D9048C30FB
:1019C000A0F491E0980F9093D9048093DD0490E007
:1019D000FC01EE0FFF1F8E0F9F1FFC01EB54FB4F0E
:1019E0008CED95E09283818303C08FEF8093DD04BB
:1019F0008091D9048C30A0F491E0980F9093D90491
:101A00008093DA0490E0FC01EE0FFF1F8E0F9F1F02
:101A1000FC01EB54FB4F8CED95E09283818308959C
:101A20008FEF8093DA0408953F924F925F926F9206
:101A30007F928F929F92AF92BF92CF92DF92EF925E
:101A4000FF920F931F93CF93DF9300D000D0CDB7B9
:101A5000DEB720910B03273021F02F3F09F02CC275
:101A600004C0ECE9F0E0349076C027E020930B034B
:101A7000ECE9F0E0E491EF3F09F41EC2E13011F12E
:101A8000E23009F443C0E11165C014BC15BC24B5B3
:101A9000226024BD25B5216025BDE2ECF0E0E49193
:101AA000F0E0EE0FFF1FEF54FF4F2591349130937C
:101AB000FA042093F904E4EAF0E0E491E093F804F6
:101AC000312C4BC010928000109281002091810037
:101AD0002860209381002091810021602093810063
:101AE000E2ECF0E0E491F0E0EE0FFF1FEF54FF4F67
:101AF000259134913093F7042093F604E4EAF0E062
:101B0000E491E093F5043324339427C01092B0009D
:101B10001092B1002091B00022602093B00020917B
:101B2000B10021602093B100E2ECF0E0E491F0E03C
:101B3000EE0FFF1FEF54FF4F2591349130931304A4
:101B400020931204E4EAF0E0E491E0931104B2E09F
:101B50003B2E03C03E2E37FCAFC12A013B018C0156
:101B600061E087E00E9443034801A12CB12C832D42
:101B70008D7F09F0BBC060E079E08DE390E0A501C6
:101B800094010E94980F29833A834B835C836901F7
:101B90007A0121E0C21AD108E108F1088FEFC816D6
:101BA000D104E104F10409F008F44CC060E271EAE8
:101BB00087E090E0A50194010E94980F69017A01E5
:101BC000E1E0CE1AD108E108F108F2E03F1220C0AE
:101BD0002FEFC216D104E104F10409F008F46AC140
:101BE00068E478EE81E090E0A50194010E94980FEE
:101BF00069017A0181E0C81AD108E108F108EFEF24
:101C0000CE16D104E104F10409F0D0F583E067C0F9
:101C1000FFEFCF16D104E104F104B1F0A8F064E2C3
:101C200074EF80E090E0A50194010E94980F690193
:101C30007A0181E0C81AD108E108F108332009F4DB
:101C4000DFC02FC181E001C082E03320A1F047C096
:101C500089819A81AB81BC812AE0B595A79597953A
:101C600087952A95D1F76C017D0121E0C21AD10830
:101C7000E108F10885E095B5987F892B85BD6FC097
:101C800064E274EF80E090E0A50194010E94980F57
:101C900069017A01F1E0CF1AD108E108F1082FEFCC
:101CA000C216D104E104F10409F008F4A7C062E10E
:101CB0007AE780E090E0A50194010E94980F690105
:101CC0007A01E1E0CE1AD108E108F108FFEFCF1662
:101CD000D104E104F10411F008F0B4C085E0909162
:101CE000B100987F892B8093B10039C060E079E022
:101CF0008DE390E0A50194010E94980F69017A019B
:101D000081E0C81AD108E108F108C114D104E1E06A
:101D1000EE06F10488F064E274EF80E090E0A50143
:101D200094010E94980F69017A01F1E0CF1AD1085D
:101D3000E108F10893E001C091E021E032120FC008
:101D400080918100887F892B809381004114510408
:101D50006104710449F42FEF3FEFA9012DC0411434
:101D600051046104710471F0D801AA0FBB1FA301D3
:101D700092010E94B70F28EE33E040E050E00E944D
:101D8000CA0F03C02FEF3FEFA90181E03816A1F081
:101D9000E2E03E1619F131108FC0C7BC2093FF045A
:101DA00030930005409301055093020580916E0029
:101DB000826080936E0080C0D0928900C0928800BB
:101DC0002093FB043093FC044093FD045093FE04E5
:101DD00080916F00826080936F006EC0C092B300EC
:101DE0002093140430931504409316045093170461
:101DF000809170008260809370005EC084E06FCF3D
:101E0000FFEFCF16D104E104F104D1F0C8F069E08E
:101E10007DE380E090E0A50194010E94980F6901A4
:101E20007A0181E0C81AD108E108F108EFEFCE1677
:101E3000D104E104F10411F008F00ACF84E01BCFD3
:101E400083E019CF69E07DE380E090E0A501940193
:101E50000E94980F69017A0181E0C81AD108E1084F
:101E6000F108EFEFCE16D104E104F104C1F0B8F0AF
:101E700089819A81AB81BC814AE0B595A7959795F8
:101E800087954A95D1F76C017D0121E0C21AD108EE
:101E9000E108F108332009F4EDCE87E020CF86E099
:101EA000D4CEFFEFCF16D104E104F10409F050F6CF
:101EB00084E0CBCE82E013CF0F900F900F900F9065
:101EC000DF91CF911F910F91FF90EF90DF90CF9016
:101ED000BF90AF909F908F907F906F905F904F904A
:101EE0003F900895FC0188279927E894219120329A
:101EF000E9F3293010F02E30C8F32B3241F02D32A7
:101F000039F4689404C00E94900F820F911D2191B2
:101F100020532A30C0F31EF4909581959F4F089569
:101F20007AE0979F902D879F802D910D1124089521
:101F3000052E97FB1EF400940E94AF0F57FD07D0AB
:101F40000E94CA0F07FC03D04EF40C94AF0F5095BB
:101F50004095309521953F4F4F4F5F4F0895909595
:101F60008095709561957F4F8F4F9F4F08950E9488
:101F7000EC0FA59F900DB49F900DA49F800D911D17
:101F800011240895B7FF0C94B70F0E94B70F821B5E
:101F9000930B0895A1E21A2EAA1BBB1BFD010DC0D5
:101FA000AA1FBB1FEE1FFF1FA217B307E407F50709
:101FB00020F0A21BB30BE40BF50B661F771F881FE5
:101FC000991F1A9469F760957095809590959B017B
:101FD000AC01BD01CF010895A29FB001B39FC00124
:101FE000A39F700D811D1124911DB29F700D811D45
:101FF0001124911D08955058BB27AA270E94131041
:102000000C9464110E94561138F00E945D1120F06A
:1020100039F49F3F19F426F40C9453110EF4E09513
:10202000E7FB0C944D11E92F0E94751158F3BA1774
:10203000620773078407950720F079F4A6F50C94DE
:1020400097110EF4E0950B2EBA2FA02D0B01B901BC
:1020500090010C01CA01A0011124FF27591B99F01E
:10206000593F50F4503E68F11A16F040A22F232F2A
:10207000342F4427585FF3CF469537952795A7957A
:10208000F0405395C9F77EF41F16BA0B620B730B21
:10209000840BBAF09150A1F0FF0FBB1F661F771F92
:1020A000881FC2F70EC0BA0F621F731F841F48F447
:1020B000879577956795B795F7959E3F08F0B0CFD0
:1020C0009395880F08F09927EE0F979587950895B7
:1020D0000E947C100C9464110E945D1158F00E94C3
:1020E000561140F029F45F3F29F00C944D11511125
:1020F0000C9498110C9453110E94751168F3992354
:10210000B1F3552391F3951B550BBB27AA276217F3
:102110007307840738F09F5F5F4F220F331F441F00
:10212000AA1FA9F335D00E2E3AF0E0E832D0915034
:102130005040E695001CCAF72BD0FE2F29D0660F21
:10214000771F881FBB1F261737074807AB07B0E864
:1021500009F0BB0B802DBF01FF2793585F4F3AF06A
:102160009E3F510578F00C944D110C9498115F3FEF
:10217000E4F3983ED4F3869577956795B795F795F0
:102180009F5FC9F7880F911D9695879597F90895D8
:10219000E1E0660F771F881FBB1F62177307840774
:1021A000BA0720F0621B730B840BBA0BEE1F88F783
:1021B000E09508950E94E1106894B1110C94981173
:1021C00008950E947D1188F09F5798F0B92F9927A4
:1021D000B751B0F0E1F0660F771F881F991F1AF012
:1021E000BA95C9F714C0B13091F00E949711B1E0CF
:1021F00008950C949711672F782F8827B85F39F0CE
:10220000B93FCCF3869577956795B395D9F73EF4AA
:1022100090958095709561957F4F8F4F9F4F089552
:10222000E89409C097FB3EF4909580957095619570
:102230007F4F8F4F9F4F9923A9F0F92F96E9BB2726
:102240009395F695879577956795B795F111F8CFA2
:10225000FAF4BB0F11F460FF1BC06F5F7F4F8F4F0D
:102260009F4F16C0882311F096E911C0772321F003
:102270009EE8872F762F05C0662371F096E8862F9B
:1022800070E060E02AF09A95660F771F881FDAF7F2
:10229000880F9695879597F9089597F99F6780E835
:1022A00070E060E008959FEF80EC089500240A94A8
:1022B0001616170618060906089500240A94121621
:1022C0001306140605060895092E0394000C11F454
:1022D000882352F0BB0F40F4BF2B11F460FF04C001
:1022E0006F5F7F4F8F4F9F4F089557FD9058440F5A
:1022F000551F59F05F3F71F04795880F97FB991F65
:1023000061F09F3F79F08795089512161306140621
:10231000551FF2CF4695F1DF08C0161617061806AE
:10232000991FF1CF86957105610508940895E89489
:10233000BB2766277727CB0197F908950E94B11133
:102340000C9464110E94561138F00E945D1120F027
:10235000952311F00C944D110C94531111240C94ED
:1023600098110E94751170F3959FC1F3950F50E07D
:10237000551F629FF001729FBB27F00DB11D639F37
:10238000AA27F00DB11DAA1F649F6627B00DA11DDD
:10239000661F829F2227B00DA11D621F739FB00D83
:1023A000A11D621F839FA00D611D221F749F3327F3
:1023B000A00D611D231F849F600D211D822F762F8C
:1023C0006A2F11249F5750409AF0F1F088234AF069
:1023D000EE0FFF1FBB1F661F771F881F91505040D5
:1023E000A9F79E3F510580F00C944D110C94981163
:1023F0005F3FE4F3983ED4F3869577956795B7955C
:10240000F795E7959F5FC1F7FE2B880F911D969575
:10241000879597F90895991B79E004C0991F96173D
:1024200008F0961B881F7A95C9F78095089597FB49
:10243000072E16F4009407D077FD09D00E942B12C6
:1024400007FC05D03EF4909581959F4F08957095B7
:1024500061957F4F0895AA1BBB1B51E107C0AA1FBE
:10246000BB1FA617B70710F0A61BB70B881F991F35
:102470005A95A9F780959095BC01CD010895EE0F6E
:10248000FF1F0590F491E02D0994CF93DF938230E4
:10249000910510F482E090E0E0910505F0910605C9
:1024A00020E030E0C0E0D0E0309711F14081518170
:1024B00048175907C0F04817590761F48281938182
:1024C000209719F09B838A832BC0909306058093F5
:1024D000050526C02115310519F04217530718F4D8
:1024E0009A01BE01DF01EF010280F381E02DDCCF14
:1024F0002115310509F1281B390B2430310590F4E1
:1025000012968D919C9113976115710521F0FB0135
:102510009383828304C09093060580930505FD0193
:10252000329644C0FD01E20FF31F81939193225034
:1025300031092D933C933AC0209103053091040555
:10254000232B41F420910E0330910F0330930405A7
:102550002093030520910C0330910D0321153105C3
:1025600041F42DB73EB74091100350911103241B45
:10257000350BE0910305F0910405E217F307A0F491
:102580002E1B3F0B2817390778F0AC014E5F5F4FC9
:102590002417350748F04E0F5F1F509304054093F2
:1025A00003058193919302C0E0E0F0E0CF01DF9159
:1025B000CF9108950F931F93CF93DF93009709F462
:1025C0008CC0FC0132971382128200910505109194
:1025D00006050115110581F420813181820F931FB9
:1025E00020910305309104052817390779F5F093F8
:1025F0000405E093030571C0D80140E050E0AE1738
:10260000BF0750F412962D913C911397AD012115FF
:10261000310509F1D901F3CF9D01DA01338322831A
:1026200060817181860F971F8217930769F4EC010F
:1026300028813981260F371F2E5F3F4F318320833A
:102640008A819B8193838283452B29F4F09306052D
:10265000E093050542C01396FC93EE931297ED01AB
:10266000499159919E01240F351FE217F30771F428
:1026700080819181840F951F029611969C938E9371
:102680008281938113969C938E931297E0E0F0E001
:10269000D80112968D919C911397009719F0F8012B
:1026A0008C01F6CF8D919C9198012E5F3F4F820F48
:1026B000931F20910305309104052817390769F409
:1026C000309729F4109206051092050502C0138276
:1026D00012821093040500930305DF91CF911F919F
:1026E0000F91089581E090E0F8940C948B19FB0110
:1026F000DC0101900D920020E1F70895AEE0B0E01A
:10270000E4E8F3E10C9462190D891E8986E08C835C
:102710001A8309838FEF9FE79E838D83AE01475E07
:102720005F4F6F89788DCE0101960E94BA132F8179
:102730003885F801E20FF31F10822E96E4E00C9426
:102740007E19AEE0B0E0E7EAF3E10C94641985E0AD
:102750008C838B899C899A838983AE01495E5F4F04
:102760006D897E89CE0101960E940C172E96E2E0BB
:102770000C948019ACE0B0E0E0ECF3E10C94541957
:102780007C016B018A01FC0117821682838181FF23
:10279000BDC1CE0101964C01F7019381F60193FD75
:1027A000859193FF81916F01882309F4ABC1853234
:1027B00039F493FD859193FF81916F01853229F45E
:1027C000B70190E00E94A218E7CF512C312C20E0F5
:1027D0002032A0F48B3269F030F4803259F0833229
:1027E00069F420612CC08D3239F0803339F42160D6
:1027F00026C02260246023C0286021C027FD27C096
:1028000030ED380F3A3078F426FF06C0FAE05F9ECC
:10281000300D1124532E13C08AE0389E300D112440
:10282000332E20620CC08E3221F426FD6BC1206451
:1028300006C08C3611F4206802C0883641F4F601D7
:1028400093FD859193FF81916F018111C1CF982FE5
:102850009F7D9554933028F40C5F1F4FFFE3F9835D
:102860000DC0833631F0833771F0833509F05BC0DA
:1028700022C0F801808189830E5F1F4F4424439456
:10288000512C540115C03801F2E06F0E711CF80193
:10289000A080B18026FF03C0652D70E002C06FEFFD
:1028A0007FEFC5012C870E9459182C0183012C85CC
:1028B0002F77222E17C03801F2E06F0E711CF8013D
:1028C000A080B18026FF03C0652D70E002C06FEFCD
:1028D0007FEFC5012C870E944E182C012C852068A3
:1028E000222E830123FC1BC0832D90E0481659063D
:1028F000B0F4B70180E290E00E94A2183A94F4CFBD
:10290000F50127FC859127FE81915F01B70190E0D9
:102910000E94A21831103A94F1E04F1A5108411464
:10292000510471F7E5C0843611F0893639F5F801A4
:1029300027FF07C060817181828193810C5F1F4FE7
:1029400008C060817181072E000C880B990B0E5F07
:102950001F4F2F76722E97FF09C090958095709526
:1029600061957F4F8F4F9F4F2068722E2AE030E095
:10297000A4010E94F318A82EA81844C0853729F492
:102980002F7EB22E2AE030E025C0F22FF97FBF2E35
:102990008F36C1F018F4883579F0B4C0803719F05B
:1029A000883721F0AFC02F2F2061B22EB4FE0DC0AA
:1029B0008B2D8460B82E09C024FF0AC09F2F96601B
:1029C000B92E06C028E030E005C020E130E002C0AA
:1029D00020E132E0F801B7FE07C060817181828199
:1029E00093810C5F1F4F06C06081718180E090E091
:1029F0000E5F1F4FA4010E94F318A82EA818FB2DEC
:102A0000FF777F2E76FE0BC0372D3E7FA51450F446
:102A100074FE0AC072FC08C0372D3E7E05C0BA2C79
:102A2000372D03C0BA2C01C0B52C34FF0DC0FE01F8
:102A3000EA0DF11D8081803311F4397E09C032FF27
:102A400006C0B394B39404C0832F867809F0B3947E
:102A500033FD13C030FF06C05A2CB31418F4530CC6
:102A60005B18B32CB31468F4B70180E290E03C87A4
:102A70000E94A218B3943C85F5CFB31410F43B1810
:102A800001C0312C34FF12C0B70180E390E03C87D5
:102A90000E94A2183C8532FF17C031FD03C088E7B1
:102AA00090E002C088E590E0B7010CC0832F8678E3
:102AB00059F031FF02C08BE201C080E237FD8DE2A8
:102AC000B70190E00E94A218A51438F4B70180E382
:102AD00090E00E94A2185A94F7CFAA94F401EA0D4C
:102AE000F11D8081B70190E00E94A218A110F5CFDE
:102AF000332009F451CEB70180E290E00E94A21881
:102B00003A94F6CFF7018681978102C08FEF9FEF4D
:102B10002C96E2E10C94701920FD09C0FC0123FD04
:102B200005C022FF02C073836283518340830895EE
:102B300044FD10C046FD10C0DB01FC01AA0FBB1F05
:102B4000EE1FFF1F1094D1F76A0F7B1F8E1F9F1F70
:102B500031E003C033E001C034E0660F771F881F07
:102B6000991F3150D1F7620F711D811D911D08957C
:102B70000F931F93CF93DF938C01C8010E946418B9
:102B8000EC0197FD08C00E943A18892BB1F7B801F3
:102B9000CE010E94DA18CE01DF91CF911F910F91E3
:102BA0000895A1E0B0E0E7EDF5E10C945A198C012D
:102BB000C62E7A0129830E946418AC015527298109
:102BC0004B32510521F04D32510569F42068CA9409
:102BD000C11002C080E076C0C80129830E94641839
:102BE000298197FDF7CF322F3D7FD32E322F3073BF
:102BF00049F5803339F5BB24BA94BC0C09F44EC0B6
:102C0000C80129830E946418298197FD47C0382F85
:102C10003F7D383569F48D2D8264D82ECA94CA94CC
:102C2000CC20E1F1C8010E94641897FF0BC036C0A8
:102C300026FF04C02D2D2260D22E03C03D2D32610F
:102C4000D32ECB2C812C912C540120ED280F283031
:102C500080F0D4FE04C0B8010E94DA181CC02A30EB
:102C600040F0D6FEF8CF2F7D3FEE320F363098F78A
:102C700027504D2DC501B4010E9498154B015C01F0
:102C80008D2D8260D82ECA94CC2059F0C8010E94A4
:102C9000641897FFDACFD1FC04C09CCF812C912C13
:102CA0005401D7FE08C0B094A09490948094811CE5
:102CB000911CA11CB11C2D2DB501A401C7010E94BE
:102CC0008C1581E02196ECE00C947619A1E2B0E03D
:102CD000ECE6F6E10C9458195C017A01CE010196FC
:102CE0006C0180E2F60111928A95E9F7F501838083
:102CF00040E050E0912C712C70E0A1E0B0E0F901CF
:102D000083FC859183FE81918F01982F9F01811112
:102D100003C080E090E07CC08E3519F44115510568
:102D200049F1E72FF0E0E417F5073CF48D3559F150
:102D30008D3219F4772001F103C0711001C0982E73
:102D4000892F8695869586958601080F111D892FF6
:102D500087703D0101C0660C8A95EAF7F801808111
:102D600086298083991559F0991510F49F5FE8CF53
:102D70009150E6CF71E004C07724739401C0712CA8
:102D80004F5F5F4FBCCF772019F08E8180628E83BA
:102D9000711103C09924939416C0F6019E012F5D12
:102DA0003F4F808180958193E217F307D1F7F2CFEF
:102DB000E114F10429F0F7018083C70101967C0139
:102DC0006150912CF9F0C50169A30E94641869A1B2
:102DD00097FD16C0282F269526952695F601E20F19
:102DE000F11D208130E0AC014770552702C03595B8
:102DF00027954A95E2F720FDDBCFB5010E94DA184E
:102E0000911087CFE114F10411F0F7011082C8018D
:102E1000A196EEE00C9474194F925F927F928F927C
:102E20009F92AF92BF92CF92DF92EF92FF920F9359
:102E30001F93CF93DF931F92CDB7DEB76C012B01A9
:102E40005A01FC0117821682712CF601F380F201FF
:102E5000F3FC8591F3FE8191382F2F01882309F42B
:102E6000F3C090E039830E943A183981892B21F010
:102E7000C6010E94B815E9CF353241F4F201F3FCE6
:102E80003591F3FE31912F01353269F4C601398352
:102E90000E946418398197FDD5C03817B1F2B60188
:102EA0000E94DA18D1C03A3239F4F3FC3591F3FEBE
:102EB00031912F0151E001C050E0420110E020EDBE
:102EC000230F2A3090F45260612F70E080E090E090
:102ED00040E259830E949815162FF401F3FC3591B6
:102EE000F3FE31914F015981EACF052F232F2401A1
:102EF00051FF03C0111102C0A7C01FEF383619F0EF
:102F00003C3659F011C0F401F3FC2591F3FE2191F8
:102F10002F01283649F4052F08600460F201F3FC04
:102F20002591F3FE21912F01222309F48DC0622FF8
:102F300070E088E690E029830E9443182981892B5C
:102F400009F482C000FD07C0F501E080F180C501F1
:102F500002965C0102C0E12CF12C2E3651F4F601F0
:102F60004681578160E070E0202FC7010E948C15D8
:102F70006CCF233691F401FF11E0C6010E94641862
:102F800097FD60C0E114F10429F0F7018083C701C7
:102F900001967C01115089F751C02B3559F49201EB
:102FA000A701612FC6010E9466162C01892B09F02A
:102FB00045C03FC0C60129830E94B815298197FDED
:102FC00041C02F3659F128F4243631F1293649F120
:102FD00027C0233769F02537F9F022C0E114F10446
:102FE00029F0F7018082C70101967C01115071F030
:102FF000C6010E9464184C0197FD08C00E943A184F
:10300000892B61F3B601C4010E94DA18E114F104BE
:10301000A9F0F701108212C0006203C0006101C074
:103020000064202FA701612FC6010E94D1158111D4
:1030300005C0F6018381807329F406C000FD05CF29
:10304000739403CF772019F0872D90E002C08FEFA3
:103050009FEF0F90DF91CF911F910F91FF90EF9015
:10306000DF90CF90BF90AF909F908F907F905F90B8
:103070004F90089591110C945119803219F0895094
:103080008550C8F70895FC010590061621F0002030
:10309000D9F7C00108953197CF010895FC0105903B
:1030A000615070400110D8F7809590958E0F9F1F4A
:1030B0000895FC016150704001900110D8F780958F
:1030C00090958E0F9F1F0895CF93DF93EC012B8176
:1030D00020FF33C026FF0AC02F7B2B838E819F8168
:1030E00001969F838E838A8190E029C022FF0FC0C2
:1030F000E881F9818081082E000C990B009719F462
:1031000020622B831AC03196F983E8830EC0EA85CA
:10311000FB85099597FF09C02B81019611F080E28C
:1031200001C080E1822B8B8308C02E813F812F5FFD
:103130003F4F3F832E83992702C08FEF9FEFDF9190
:10314000CF9108950F931F93CF93DF93FB012381BA
:1031500021FD03C08FEF9FEF28C022FF16C04681DC
:103160005781248135814217530744F4A081B181EE
:103170009D012F5F3F4F318320838C9326813781C0
:103180002F5F3F4F3783268310C0EB01092F182F85
:103190000084F185E02D0995892BE1F68E819F81D0
:1031A00001969F838E83812F902FDF91CF911F9166
:1031B0000F910895FB01238120FF12C026FD10C04E
:1031C0008F3F3FEF930761F082832F7D206423833D
:1031D0002681378121503109378326839927089525
:1031E0008FEF9FEF0895FA01AA27283051F120317F
:1031F00081F1E8946F936E7F6E5F7F4F8F4F9F4F8B
:10320000AF4FB1E03ED0B4E03CD0670F781F891FCC
:103210009A1FA11D680F791F8A1F911DA11D6A0F9A
:10322000711D811D911DA11D20D009F468943F914D
:103230002AE0269F11243019305D3193DEF6CF014C
:103240000895462F4770405D4193B3E00FD0C9F712
:10325000F6CF462F4F70405D4A3318F0495D31FD7F
:103260004052419302D0A9F7EACFB4E0A6959795D2
:10327000879577956795BA95C9F7009761057105A8
:1032800008959B01AC010A2E0694579547953795F2
:103290002795BA95C9F7620F731F841F951FA01D4C
:1032A00008959927882708952F923F924F925F9211
:1032B0006F927F928F929F92AF92BF92CF92DF9246
:1032C000EF92FF920F931F93CF93DF93CDB7DEB7AB
:1032D000CA1BDB0B0FB6F894DEBF0FBECDBF09943F
:1032E0002A88398848885F846E847D848C849B8496
:1032F000AA84B984C884DF80EE80FD800C811B81A4
:10330000AA81B981CE0FD11D0FB6F894DEBF0FBED2
:10331000CDBFED01089510E0C9E6D0E004C0FE0184
:103320000E943F122196CA36D107C9F7F894FFCF01
:10333000485454502F312E3120323030204F4B0A18
:10334000436F6E6E656374696F6E3A20636C6F7362
:10335000650A436F6E74656E742D547970653A20FA
:103360006170706C69636174696F6E2F6A736F6EE0
:103370000A436F6E74656E742D4C656E6774683A9F
:103380002025640A4163636573732D436F6E747205
:103390006F6C2D416C6C6F772D4F726967696E3A57
:1033A000202A0A0A257300485454502F312E312008
:1033B0003430302042616420526571756573740A3F
:1033C000436F6E6E656374696F6E3A20636C6F73E2
:1033D000650A436F6E74656E742D547970653A207A
:1033E0006170706C69636174696F6E2F6A736F6E60
:1033F0000A436F6E74656E742D4C656E6774683A1F
:1034000020300A4163636573732D436F6E74726F6E
:103410006C2D416C6C6F772D4F726967696E3A2025
:103420002A0A0A002D204C65640A09474554202FBA
:10343000382F3C73746174655B307C315D3E2F0ABC
:103440002D20494D550A09474554202F392F0A2D63
:1034500020436865636B204F4B0A09474554202F72
:1034600031302F0A2D204150490A09474554202F59
:1034700031312F0A002D2044697374616E63650A2F
:1034800009474554202F352F0A2D20506978656C47
:103490000A09474554202F362F3C7265643E2F3C65
:1034A000677265656E3E2F3C626C75653E2F0A2D16
:1034B000204C696768740A09474554202F372F0A42
:1034C000004150492076657273696F6E20312E324B
:1034D0000A2D20426C696E6B0A09474554202F3132
:1034E0002F3C726174653E2F0A2D204C696E650A6F
:1034F00009474554202F322F0A2D204D6F76650A3B
:1035000009474554202F332F3C6C6566743E2F3C91
:1035100072696768743E2F0A2D2053696E670A0925
:10352000474554202F342F3C6E6F74653E2F3C640A
:1035300075726174696F6E3E2F0A00FF0000070507
:103540008000B801B801B8015D010B02B8015D014E
:103550000B02B801930293029302BA020B02B80164
:103560005D010B02B8010400040004000500100016
:10357000040005001000020004000400040005001F
:1035800010000400050010000200000000007F0190
:10359000E8001701C601480126013A01252A5B5EB1
:1035A0002F5D252A63255B5E2F5D252A63255B5EE3
:1035B0002F5D252A63255B5E2F5D252A63255B5ED3
:1035C0002F5D005B25642C2025645D00256C640064
:0E35D0002564004F4B00257325732573000002
:00000001FF
